{
	"contractName": "FractionToken",
	"address": "0x7Fdfb1eF01b5B4bC59F5D7FF2530f2dC4E1889E6",
	"abi": [
		{
			"inputs": [],
			"stateMutability": "nonpayable",
			"type": "constructor"
		},
		{
			"anonymous": false,
			"inputs": [
				{
					"indexed": true,
					"internalType": "address",
					"name": "owner",
					"type": "address"
				},
				{
					"indexed": true,
					"internalType": "address",
					"name": "spender",
					"type": "address"
				},
				{
					"indexed": false,
					"internalType": "uint256",
					"name": "value",
					"type": "uint256"
				}
			],
			"name": "Approval",
			"type": "event"
		},
		{
			"anonymous": false,
			"inputs": [
				{
					"indexed": true,
					"internalType": "address",
					"name": "previousOwner",
					"type": "address"
				},
				{
					"indexed": true,
					"internalType": "address",
					"name": "newOwner",
					"type": "address"
				}
			],
			"name": "OwnershipTransferred",
			"type": "event"
		},
		{
			"anonymous": false,
			"inputs": [
				{
					"indexed": false,
					"internalType": "address",
					"name": "account",
					"type": "address"
				}
			],
			"name": "Paused",
			"type": "event"
		},
		{
			"anonymous": false,
			"inputs": [
				{
					"indexed": true,
					"internalType": "address",
					"name": "from",
					"type": "address"
				},
				{
					"indexed": true,
					"internalType": "address",
					"name": "to",
					"type": "address"
				},
				{
					"indexed": false,
					"internalType": "uint256",
					"name": "value",
					"type": "uint256"
				}
			],
			"name": "Transfer",
			"type": "event"
		},
		{
			"anonymous": false,
			"inputs": [
				{
					"indexed": false,
					"internalType": "address",
					"name": "account",
					"type": "address"
				}
			],
			"name": "Unpaused",
			"type": "event"
		},
		{
			"stateMutability": "payable",
			"type": "fallback"
		},
		{
			"inputs": [],
			"name": "ContractDeployer",
			"outputs": [
				{
					"internalType": "address",
					"name": "",
					"type": "address"
				}
			],
			"stateMutability": "view",
			"type": "function"
		},
		{
			"inputs": [],
			"name": "NFTAddress",
			"outputs": [
				{
					"internalType": "address",
					"name": "",
					"type": "address"
				}
			],
			"stateMutability": "view",
			"type": "function"
		},
		{
			"inputs": [],
			"name": "NFTId",
			"outputs": [
				{
					"internalType": "uint256",
					"name": "",
					"type": "uint256"
				}
			],
			"stateMutability": "view",
			"type": "function"
		},
		{
			"inputs": [],
			"name": "NFTOwner",
			"outputs": [
				{
					"internalType": "address",
					"name": "",
					"type": "address"
				}
			],
			"stateMutability": "view",
			"type": "function"
		},
		{
			"inputs": [],
			"name": "RoyaltyPercentage",
			"outputs": [
				{
					"internalType": "uint256",
					"name": "",
					"type": "uint256"
				}
			],
			"stateMutability": "view",
			"type": "function"
		},
		{
			"inputs": [
				{
					"internalType": "address",
					"name": "owner",
					"type": "address"
				},
				{
					"internalType": "address",
					"name": "spender",
					"type": "address"
				}
			],
			"name": "allowance",
			"outputs": [
				{
					"internalType": "uint256",
					"name": "",
					"type": "uint256"
				}
			],
			"stateMutability": "view",
			"type": "function"
		},
		{
			"inputs": [
				{
					"internalType": "address",
					"name": "spender",
					"type": "address"
				},
				{
					"internalType": "uint256",
					"name": "amount",
					"type": "uint256"
				}
			],
			"name": "approve",
			"outputs": [
				{
					"internalType": "bool",
					"name": "",
					"type": "bool"
				}
			],
			"stateMutability": "nonpayable",
			"type": "function"
		},
		{
			"inputs": [
				{
					"internalType": "address",
					"name": "account",
					"type": "address"
				}
			],
			"name": "balanceOf",
			"outputs": [
				{
					"internalType": "uint256",
					"name": "",
					"type": "uint256"
				}
			],
			"stateMutability": "view",
			"type": "function"
		},
		{
			"inputs": [
				{
					"internalType": "uint256",
					"name": "_amount",
					"type": "uint256"
				}
			],
			"name": "burn",
			"outputs": [],
			"stateMutability": "nonpayable",
			"type": "function"
		},
		{
			"inputs": [
				{
					"internalType": "address",
					"name": "account",
					"type": "address"
				},
				{
					"internalType": "uint256",
					"name": "amount",
					"type": "uint256"
				}
			],
			"name": "burnFrom",
			"outputs": [],
			"stateMutability": "nonpayable",
			"type": "function"
		},
		{
			"inputs": [],
			"name": "decimals",
			"outputs": [
				{
					"internalType": "uint8",
					"name": "",
					"type": "uint8"
				}
			],
			"stateMutability": "view",
			"type": "function"
		},
		{
			"inputs": [
				{
					"internalType": "address",
					"name": "spender",
					"type": "address"
				},
				{
					"internalType": "uint256",
					"name": "subtractedValue",
					"type": "uint256"
				}
			],
			"name": "decreaseAllowance",
			"outputs": [
				{
					"internalType": "bool",
					"name": "",
					"type": "bool"
				}
			],
			"stateMutability": "nonpayable",
			"type": "function"
		},
		{
			"inputs": [],
			"name": "fractionToken",
			"outputs": [
				{
					"internalType": "contract FractionToken",
					"name": "",
					"type": "address"
				}
			],
			"stateMutability": "view",
			"type": "function"
		},
		{
			"inputs": [
				{
					"internalType": "address",
					"name": "account",
					"type": "address"
				}
			],
			"name": "getBalanceEth",
			"outputs": [
				{
					"internalType": "uint256",
					"name": "",
					"type": "uint256"
				}
			],
			"stateMutability": "view",
			"type": "function"
		},
		{
			"inputs": [
				{
					"internalType": "address",
					"name": "_account",
					"type": "address"
				}
			],
			"name": "getBalanceOf",
			"outputs": [
				{
					"internalType": "uint256",
					"name": "",
					"type": "uint256"
				}
			],
			"stateMutability": "view",
			"type": "function"
		},
		{
			"inputs": [],
			"name": "getOwner",
			"outputs": [
				{
					"internalType": "address",
					"name": "",
					"type": "address"
				}
			],
			"stateMutability": "view",
			"type": "function"
		},
		{
			"inputs": [
				{
					"internalType": "uint256",
					"name": "_nftId",
					"type": "uint256"
				}
			],
			"name": "getOwnerOf",
			"outputs": [
				{
					"internalType": "address",
					"name": "",
					"type": "address"
				}
			],
			"stateMutability": "view",
			"type": "function"
		},
		{
			"inputs": [],
			"name": "getProjectOwner",
			"outputs": [
				{
					"internalType": "address",
					"name": "",
					"type": "address"
				}
			],
			"stateMutability": "view",
			"type": "function"
		},
		{
			"inputs": [
				{
					"internalType": "uint256",
					"name": "_nftId",
					"type": "uint256"
				}
			],
			"name": "getSoldTokens",
			"outputs": [
				{
					"internalType": "uint256",
					"name": "",
					"type": "uint256"
				}
			],
			"stateMutability": "view",
			"type": "function"
		},
		{
			"inputs": [],
			"name": "getTokenOwners",
			"outputs": [
				{
					"internalType": "address[]",
					"name": "",
					"type": "address[]"
				}
			],
			"stateMutability": "view",
			"type": "function"
		},
		{
			"inputs": [],
			"name": "getTokenPrice",
			"outputs": [
				{
					"internalType": "uint256",
					"name": "",
					"type": "uint256"
				}
			],
			"stateMutability": "view",
			"type": "function"
		},
		{
			"inputs": [],
			"name": "getTotalSupply",
			"outputs": [
				{
					"internalType": "uint256",
					"name": "",
					"type": "uint256"
				}
			],
			"stateMutability": "view",
			"type": "function"
		},
		{
			"inputs": [],
			"name": "getTreasuryWallet",
			"outputs": [
				{
					"internalType": "address",
					"name": "",
					"type": "address"
				}
			],
			"stateMutability": "view",
			"type": "function"
		},
		{
			"inputs": [
				{
					"internalType": "address",
					"name": "spender",
					"type": "address"
				},
				{
					"internalType": "uint256",
					"name": "addedValue",
					"type": "uint256"
				}
			],
			"name": "increaseAllowance",
			"outputs": [
				{
					"internalType": "bool",
					"name": "",
					"type": "bool"
				}
			],
			"stateMutability": "nonpayable",
			"type": "function"
		},
		{
			"inputs": [],
			"name": "makeMaxSupply",
			"outputs": [],
			"stateMutability": "nonpayable",
			"type": "function"
		},
		{
			"inputs": [
				{
					"internalType": "uint256",
					"name": "",
					"type": "uint256"
				}
			],
			"name": "maxSupplyOf",
			"outputs": [
				{
					"internalType": "uint256",
					"name": "",
					"type": "uint256"
				}
			],
			"stateMutability": "view",
			"type": "function"
		},
		{
			"inputs": [
				{
					"internalType": "address",
					"name": "_to",
					"type": "address"
				},
				{
					"internalType": "uint256",
					"name": "_amount",
					"type": "uint256"
				}
			],
			"name": "mintTo",
			"outputs": [],
			"stateMutability": "nonpayable",
			"type": "function"
		},
		{
			"inputs": [],
			"name": "name",
			"outputs": [
				{
					"internalType": "string",
					"name": "",
					"type": "string"
				}
			],
			"stateMutability": "view",
			"type": "function"
		},
		{
			"inputs": [],
			"name": "owner",
			"outputs": [
				{
					"internalType": "address",
					"name": "",
					"type": "address"
				}
			],
			"stateMutability": "view",
			"type": "function"
		},
		{
			"inputs": [
				{
					"internalType": "uint256",
					"name": "",
					"type": "uint256"
				}
			],
			"name": "ownerOf",
			"outputs": [
				{
					"internalType": "address",
					"name": "",
					"type": "address"
				}
			],
			"stateMutability": "view",
			"type": "function"
		},
		{
			"inputs": [],
			"name": "pause",
			"outputs": [],
			"stateMutability": "nonpayable",
			"type": "function"
		},
		{
			"inputs": [],
			"name": "paused",
			"outputs": [
				{
					"internalType": "bool",
					"name": "",
					"type": "bool"
				}
			],
			"stateMutability": "view",
			"type": "function"
		},
		{
			"inputs": [],
			"name": "projectOwner",
			"outputs": [
				{
					"internalType": "address",
					"name": "",
					"type": "address"
				}
			],
			"stateMutability": "view",
			"type": "function"
		},
		{
			"inputs": [
				{
					"internalType": "uint256",
					"name": "_nftId",
					"type": "uint256"
				},
				{
					"internalType": "uint256",
					"name": "_amountToBuy",
					"type": "uint256"
				}
			],
			"name": "purchase",
			"outputs": [],
			"stateMutability": "payable",
			"type": "function"
		},
		{
			"inputs": [],
			"name": "renounceOwnership",
			"outputs": [],
			"stateMutability": "nonpayable",
			"type": "function"
		},
		{
			"inputs": [
				{
					"internalType": "address",
					"name": "_newProjectOwner",
					"type": "address"
				}
			],
			"name": "setNewProjectOwner",
			"outputs": [],
			"stateMutability": "nonpayable",
			"type": "function"
		},
		{
			"inputs": [
				{
					"internalType": "uint256",
					"name": "_newTokenPrice",
					"type": "uint256"
				}
			],
			"name": "setNewTokenPrice",
			"outputs": [],
			"stateMutability": "nonpayable",
			"type": "function"
		},
		{
			"inputs": [
				{
					"internalType": "address",
					"name": "_newTreasuryWallet",
					"type": "address"
				}
			],
			"name": "setNewTreasuryWallet",
			"outputs": [],
			"stateMutability": "nonpayable",
			"type": "function"
		},
		{
			"inputs": [],
			"name": "supply",
			"outputs": [
				{
					"internalType": "uint256",
					"name": "",
					"type": "uint256"
				}
			],
			"stateMutability": "view",
			"type": "function"
		},
		{
			"inputs": [
				{
					"internalType": "uint256",
					"name": "",
					"type": "uint256"
				}
			],
			"name": "supplyOf",
			"outputs": [
				{
					"internalType": "uint256",
					"name": "",
					"type": "uint256"
				}
			],
			"stateMutability": "view",
			"type": "function"
		},
		{
			"inputs": [],
			"name": "symbol",
			"outputs": [
				{
					"internalType": "string",
					"name": "",
					"type": "string"
				}
			],
			"stateMutability": "view",
			"type": "function"
		},
		{
			"inputs": [],
			"name": "tokenPrice",
			"outputs": [
				{
					"internalType": "uint256",
					"name": "",
					"type": "uint256"
				}
			],
			"stateMutability": "view",
			"type": "function"
		},
		{
			"inputs": [],
			"name": "totalSupply",
			"outputs": [
				{
					"internalType": "uint256",
					"name": "",
					"type": "uint256"
				}
			],
			"stateMutability": "view",
			"type": "function"
		},
		{
			"inputs": [
				{
					"internalType": "address",
					"name": "to",
					"type": "address"
				},
				{
					"internalType": "uint256",
					"name": "amount",
					"type": "uint256"
				}
			],
			"name": "transfer",
			"outputs": [
				{
					"internalType": "bool",
					"name": "",
					"type": "bool"
				}
			],
			"stateMutability": "nonpayable",
			"type": "function"
		},
		{
			"inputs": [
				{
					"internalType": "address payable",
					"name": "_to",
					"type": "address"
				}
			],
			"name": "transferEth",
			"outputs": [],
			"stateMutability": "payable",
			"type": "function"
		},
		{
			"inputs": [
				{
					"internalType": "address",
					"name": "_from",
					"type": "address"
				},
				{
					"internalType": "address",
					"name": "_to",
					"type": "address"
				},
				{
					"internalType": "uint256",
					"name": "_amount",
					"type": "uint256"
				}
			],
			"name": "transferFrom",
			"outputs": [
				{
					"internalType": "bool",
					"name": "",
					"type": "bool"
				}
			],
			"stateMutability": "nonpayable",
			"type": "function"
		},
		{
			"inputs": [
				{
					"internalType": "address",
					"name": "newOwner",
					"type": "address"
				}
			],
			"name": "transferOwnership",
			"outputs": [],
			"stateMutability": "nonpayable",
			"type": "function"
		},
		{
			"inputs": [
				{
					"internalType": "address",
					"name": "_newOwner",
					"type": "address"
				}
			],
			"name": "transferOwnershipTo",
			"outputs": [],
			"stateMutability": "nonpayable",
			"type": "function"
		},
		{
			"inputs": [
				{
					"internalType": "address",
					"name": "_to",
					"type": "address"
				},
				{
					"internalType": "uint256",
					"name": "_nftId",
					"type": "uint256"
				},
				{
					"internalType": "uint256",
					"name": "_amount",
					"type": "uint256"
				}
			],
			"name": "transferTo",
			"outputs": [
				{
					"internalType": "bool",
					"name": "",
					"type": "bool"
				}
			],
			"stateMutability": "nonpayable",
			"type": "function"
		},
		{
			"inputs": [],
			"name": "unpause",
			"outputs": [],
			"stateMutability": "nonpayable",
			"type": "function"
		},
		{
			"stateMutability": "payable",
			"type": "receive"
		}
	],
	"transactionHash": "0x97828ba8ed4e0267407599339aed59e2426af2d375166e18e3f16f678452084b",
	"solcInputHash": "69a05494a4e6e21392813a73dcd4fc17",
	"numDeployments": 1,
	"args": [],
	"bytecode": "0x6080604052604051620000129062000268565b604051809103906000f0801580156200002f573d6000803e3d6000fd5b50600880546001600160a01b0319166001600160a01b03929092169190911790553480156200005d57600080fd5b50601980546200006d9062000276565b80601f01602080910402602001604051908101604052809291908181526020018280546200009b9062000276565b8015620000ec5780601f10620000c057610100808354040283529160200191620000ec565b820191906000526020600020905b815481529060010190602001808311620000ce57829003601f168201915b5050505050601a8054620001009062000276565b80601f01602080910402602001604051908101604052809291908181526020018280546200012e9062000276565b80156200017f5780601f1062000153576101008083540402835291602001916200017f565b820191906000526020600020905b8154815290600101906020018083116200016157829003601f168201915b505050505081600390816200019591906200031b565b506004620001a482826200031b565b50506005805460ff1916905550620001bc336200020e565b6001600655600980547311111111111111111111111111111111111111116001600160a01b03199182168117909255611388600a908155600b80549092169092179055600c556103e8600d55620003e7565b600580546001600160a01b03838116610100818102610100600160a81b031985161790945560405193909204169182907f8be0079c531659141344cd1fd0a4f28419497f9722a3daafe3b4186f6b6457e090600090a35050565b6101538062001dec83390190565b600181811c908216806200028b57607f821691505b602082108103620002ac57634e487b7160e01b600052602260045260246000fd5b50919050565b634e487b7160e01b600052604160045260246000fd5b601f8211156200031657600081815260208120601f850160051c81016020861015620002f15750805b601f850160051c820191505b818110156200031257828155600101620002fd565b5050505b505050565b81516001600160401b03811115620003375762000337620002b2565b6200034f8162000348845462000276565b84620002c8565b602080601f8311600181146200038757600084156200036e5750858301515b600019600386901b1c1916600185901b17855562000312565b600085815260208120601f198616915b82811015620003b85788860151825594840194600190910190840162000397565b5085821015620003d75787850151600019600388901b60f8161c191681555b5050505050600190811b01905550565b6119f580620003f76000396000f3fe6080604052600436106102af5760003560e01c806370a082311161016657806399067ede116100d3578063c4e41b221161008f578063d41edb181161006c578063d41edb1814610897578063dd62ed3e146108b7578063e6d68595146108d7578063f2fde38b146108f557005b8063c4e41b2214610823578063c6eebdcb14610838578063d1b02ba71461087557005b806399067ede1461075b5780639b96eece14610783578063a4475ce4146107a3578063a457c2d7146107c3578063a9059cbb146107e3578063bed1dbbe1461080357005b80638456cb59116101225780638456cb59146106a45780638806792f146106b9578063893d20e8146106e65780638cb0cc59146107095780638da5cb5b146106e657806395d89b411461074657005b806370a08231146105d7578063715018a61461060d578063788c51cc1461062257806379cc6790146106385780637ff9b59614610658578063836387101461066e57005b8063395093511161021c5780634b94f50e116101d85780635a310889116101b55780635a310889146105615780635c975abb146105765780636352211e1461058e57806370876c98146105c457005b80634b94f50e1461050e57806352effe111461052357806355150d241461054357005b806339509351146104595780633f4ba83a1461047957806342966c681461048e578063449a52f8146104ae578063457dfc67146104ce57806345b47f6f146104ee57005b806323b872dd1161026b57806323b872dd1461038b5780632564eed7146103ab5780632c035b74146103d857806330df47af1461040a578063310c87cc1461041d578063313ce5671461043d57005b8063047fc9aa146102b857806306fdde03146102e1578063095ea7b3146103035780630fe550d11461033357806318160ddd146103495780631d24dca01461035e57005b366102b657005b005b3480156102c457600080fd5b506102ce600d5481565b6040519081526020015b60405180910390f35b3480156102ed57600080fd5b506102f6610915565b6040516102d8919061170d565b34801561030f57600080fd5b5061032361031e366004611770565b6109a7565b60405190151581526020016102d8565b34801561033f57600080fd5b506102ce600a5481565b34801561035557600080fd5b506002546102ce565b34801561036a57600080fd5b506102ce61037936600461179c565b60009081526016602052604090205490565b34801561039757600080fd5b506103236103a63660046117b5565b6109c1565b3480156103b757600080fd5b506102ce6103c636600461179c565b60176020526000908152604090205481565b3480156103e457600080fd5b506011546001600160a01b03165b6040516001600160a01b0390911681526020016102d8565b6102b66104183660046117f6565b610a2c565b34801561042957600080fd5b506009546103f2906001600160a01b031681565b34801561044957600080fd5b50604051601281526020016102d8565b34801561046557600080fd5b50610323610474366004611770565b610acf565b34801561048557600080fd5b506102b6610af1565b34801561049a57600080fd5b506102b66104a936600461179c565b610afb565b3480156104ba57600080fd5b506102b66104c9366004611770565b610b08565b3480156104da57600080fd5b506007546103f2906001600160a01b031681565b3480156104fa57600080fd5b5061032361050936600461181a565b610b1a565b34801561051a57600080fd5b50600f546102ce565b34801561052f57600080fd5b506102b661053e3660046117f6565b610bfc565b34801561054f57600080fd5b506013546001600160a01b03166103f2565b34801561056d57600080fd5b506102b6610c05565b34801561058257600080fd5b5060055460ff16610323565b34801561059a57600080fd5b506103f26105a936600461179c565b6015602052600090815260409020546001600160a01b031681565b6102b66105d236600461184f565b610c35565b3480156105e357600080fd5b506102ce6105f23660046117f6565b6001600160a01b031660009081526020819052604090205490565b34801561061957600080fd5b506102b6610cf0565b34801561062e57600080fd5b506102ce600c5481565b34801561064457600080fd5b506102b6610653366004611770565b610d02565b34801561066457600080fd5b506102ce600f5481565b34801561067a57600080fd5b506103f261068936600461179c565b6000908152601560205260409020546001600160a01b031690565b3480156106b057600080fd5b506102b6610d17565b3480156106c557600080fd5b506102ce6106d436600461179c565b60166020526000908152604090205481565b3480156106f257600080fd5b5060055461010090046001600160a01b03166103f2565b34801561071557600080fd5b506102b66107243660046117f6565b601180546001600160a01b0319166001600160a01b0392909216919091179055565b34801561075257600080fd5b506102f6610d1f565b34801561076757600080fd5b506102ce6107763660046117f6565b6001600160a01b03163190565b34801561078f57600080fd5b506102ce61079e3660046117f6565b610d2e565b3480156107af57600080fd5b506012546103f2906001600160a01b031681565b3480156107cf57600080fd5b506103236107de366004611770565b610d4c565b3480156107ef57600080fd5b506103236107fe366004611770565b610dd2565b34801561080f57600080fd5b50600b546103f2906001600160a01b031681565b34801561082f57600080fd5b50600d546102ce565b34801561084457600080fd5b506102b66108533660046117f6565b601280546001600160a01b0319166001600160a01b0392909216919091179055565b34801561088157600080fd5b5061088a610de0565b6040516102d89190611871565b3480156108a357600080fd5b506102b66108b236600461179c565b600f55565b3480156108c357600080fd5b506102ce6108d23660046118be565b610e41565b3480156108e357600080fd5b506012546001600160a01b03166103f2565b34801561090157600080fd5b506102b66109103660046117f6565b610e6c565b606060038054610924906118f7565b80601f0160208091040260200160405190810160405280929190818152602001828054610950906118f7565b801561099d5780601f106109725761010080835404028352916020019161099d565b820191906000526020600020905b81548152906001019060200180831161098057829003601f168201915b5050505050905090565b6000336109b5818585610ee2565b60019150505b92915050565b6000336109cf858285611007565b60006064600c54856109e19190611947565b6109eb919061195e565b905060006109f98286611980565b600b54909150610a149088906001600160a01b031684611081565b610a1f878783611081565b5060019695505050505050565b6000816001600160a01b03163460405160006040518083038185875af1925050503d8060008114610a79576040519150601f19603f3d011682016040523d82523d6000602084013e610a7e565b606091505b5050905080610acb5760405162461bcd60e51b81526020600482015260146024820152732330b4b632b2103a379039b2b7321022ba3432b960611b60448201526064015b60405180910390fd5b5050565b6000336109b5818585610ae28383610e41565b610aec9190611993565b610ee2565b610af9611230565b565b610b053382611282565b50565b610b106113b8565b610acb8282611418565b600b546001600160a01b0316600090815260208190526040812054821115610b4157600080fd5b60006064600c5484610b539190611947565b610b5d919061195e565b90506000610b6b8285611980565b600b549091506001600160a01b0316610b85818085611081565b610b90818884611081565b60108054600181019091557f1b6847dc741a1b0cd08d278845f9d819d87b734759afb55fe2de5cb82a9ae6720180546001600160a01b0389166001600160a01b03199182168117909255600088815260156020526040902080549091169091179055610a1f85876114e3565b610b0581610e6c565b60015b6113888111610b0557600d5460008281526017602052604090205580610c2d816119a6565b915050610c08565b610c3d611513565b610c45611559565b8181610c5182826115b2565b6008546040516330df47af60e01b81523060048201526001600160a01b03909116906330df47af9034906024016000604051808303818588803b158015610c9757600080fd5b505af1158015610cab573d6000803e3d6000fd5b5050505050610cbb338585610b1a565b50600084815260176020526040902054610cd6908490611980565b600085815260176020526040902055505060016006555050565b610cf86113b8565b610af96000611620565b610d0d823383611007565b610acb8282611282565b610af961167a565b606060048054610924906118f7565b6001600160a01b0381166000908152602081905260408120546109bb565b60003381610d5a8286610e41565b905083811015610dba5760405162461bcd60e51b815260206004820152602560248201527f45524332303a2064656372656173656420616c6c6f77616e63652062656c6f77604482015264207a65726f60d81b6064820152608401610ac2565b610dc78286868403610ee2565b506001949350505050565b6000336109b5818585611081565b6060601080548060200260200160405190810160405280929190818152602001828054801561099d57602002820191906000526020600020905b81546001600160a01b03168152600190910190602001808311610e1a575050505050905090565b6001600160a01b03918216600090815260016020908152604080832093909416825291909152205490565b610e746113b8565b6001600160a01b038116610ed95760405162461bcd60e51b815260206004820152602660248201527f4f776e61626c653a206e6577206f776e657220697320746865207a65726f206160448201526564647265737360d01b6064820152608401610ac2565b610b0581611620565b6001600160a01b038316610f445760405162461bcd60e51b8152602060048201526024808201527f45524332303a20617070726f76652066726f6d20746865207a65726f206164646044820152637265737360e01b6064820152608401610ac2565b6001600160a01b038216610fa55760405162461bcd60e51b815260206004820152602260248201527f45524332303a20617070726f766520746f20746865207a65726f206164647265604482015261737360f01b6064820152608401610ac2565b6001600160a01b0383811660008181526001602090815260408083209487168084529482529182902085905590518481527f8c5be1e5ebec7d5bd14f71427d1e84f3dd0314c0f7b2291e5b200ac8c7c3b92591015b60405180910390a3505050565b60006110138484610e41565b9050600019811461107b578181101561106e5760405162461bcd60e51b815260206004820152601d60248201527f45524332303a20696e73756666696369656e7420616c6c6f77616e63650000006044820152606401610ac2565b61107b8484848403610ee2565b50505050565b6001600160a01b0383166110e55760405162461bcd60e51b815260206004820152602560248201527f45524332303a207472616e736665722066726f6d20746865207a65726f206164604482015264647265737360d81b6064820152608401610ac2565b6001600160a01b0382166111475760405162461bcd60e51b815260206004820152602360248201527f45524332303a207472616e7366657220746f20746865207a65726f206164647260448201526265737360e81b6064820152608401610ac2565b6111528383836116b7565b6001600160a01b038316600090815260208190526040902054818110156111ca5760405162461bcd60e51b815260206004820152602660248201527f45524332303a207472616e7366657220616d6f756e7420657863656564732062604482015265616c616e636560d01b6064820152608401610ac2565b6001600160a01b03848116600081815260208181526040808320878703905593871680835291849020805487019055925185815290927fddf252ad1be2c89b69c2b068fc378daa952ba7f163c4a11628f55a4df523b3ef910160405180910390a361107b565b6112386116c4565b6005805460ff191690557f5db9ee0a495bf2e6ff9c91a7834c1ba4fdd244a5e8aa4e537bd38aeae4b073aa335b6040516001600160a01b03909116815260200160405180910390a1565b6001600160a01b0382166112e25760405162461bcd60e51b815260206004820152602160248201527f45524332303a206275726e2066726f6d20746865207a65726f206164647265736044820152607360f81b6064820152608401610ac2565b6112ee826000836116b7565b6001600160a01b038216600090815260208190526040902054818110156113625760405162461bcd60e51b815260206004820152602260248201527f45524332303a206275726e20616d6f756e7420657863656564732062616c616e604482015261636560f01b6064820152608401610ac2565b6001600160a01b0383166000818152602081815260408083208686039055600280548790039055518581529192917fddf252ad1be2c89b69c2b068fc378daa952ba7f163c4a11628f55a4df523b3ef9101610ffa565b6005546001600160a01b03610100909104163314610af95760405162461bcd60e51b815260206004820181905260248201527f4f776e61626c653a2063616c6c6572206973206e6f7420746865206f776e65726044820152606401610ac2565b6001600160a01b03821661146e5760405162461bcd60e51b815260206004820152601f60248201527f45524332303a206d696e7420746f20746865207a65726f2061646472657373006044820152606401610ac2565b61147a600083836116b7565b806002600082825461148c9190611993565b90915550506001600160a01b038216600081815260208181526040808320805486019055518481527fddf252ad1be2c89b69c2b068fc378daa952ba7f163c4a11628f55a4df523b3ef910160405180910390a35050565b6000818152601660205260409020546114fc8382611993565b600092835260166020526040909220919091555050565b60055460ff1615610af95760405162461bcd60e51b815260206004820152601060248201526f14185d5cd8589b194e881c185d5cd95960821b6044820152606401610ac2565b6002600654036115ab5760405162461bcd60e51b815260206004820152601f60248201527f5265656e7472616e637947756172643a207265656e7472616e742063616c6c006044820152606401610ac2565b6002600655565b600082815260176020526040902054811115610acb5760405162461bcd60e51b815260206004820152602760248201527f4578636565642074686520616d6f756e74206f6620617661696c61626c6520736044820152667570706c69657360c81b6064820152608401610ac2565b600580546001600160a01b03838116610100818102610100600160a81b031985161790945560405193909204169182907f8be0079c531659141344cd1fd0a4f28419497f9722a3daafe3b4186f6b6457e090600090a35050565b611682611513565b6005805460ff191660011790557f62e78cea01bee320cd4e420270b5ea74000d11b0c9f74754ebdbfc544b05a2586112653390565b6116bf611513565b505050565b60055460ff16610af95760405162461bcd60e51b815260206004820152601460248201527314185d5cd8589b194e881b9bdd081c185d5cd95960621b6044820152606401610ac2565b600060208083528351808285015260005b8181101561173a5785810183015185820160400152820161171e565b506000604082860101526040601f19601f8301168501019250505092915050565b6001600160a01b0381168114610b0557600080fd5b6000806040838503121561178357600080fd5b823561178e8161175b565b946020939093013593505050565b6000602082840312156117ae57600080fd5b5035919050565b6000806000606084860312156117ca57600080fd5b83356117d58161175b565b925060208401356117e58161175b565b929592945050506040919091013590565b60006020828403121561180857600080fd5b81356118138161175b565b9392505050565b60008060006060848603121561182f57600080fd5b833561183a8161175b565b95602085013595506040909401359392505050565b6000806040838503121561186257600080fd5b50508035926020909101359150565b6020808252825182820181905260009190848201906040850190845b818110156118b25783516001600160a01b03168352928401929184019160010161188d565b50909695505050505050565b600080604083850312156118d157600080fd5b82356118dc8161175b565b915060208301356118ec8161175b565b809150509250929050565b600181811c9082168061190b57607f821691505b60208210810361192b57634e487b7160e01b600052602260045260246000fd5b50919050565b634e487b7160e01b600052601160045260246000fd5b80820281158282048414176109bb576109bb611931565b60008261197b57634e487b7160e01b600052601260045260246000fd5b500490565b818103818111156109bb576109bb611931565b808201808211156109bb576109bb611931565b6000600182016119b8576119b8611931565b506001019056fea2646970667358221220439c067e777c15b33966191d82e9878bb6de1c213efeb52458c600812d5cd8d164736f6c63430008110033608060405234801561001057600080fd5b50610133806100206000396000f3fe608060405260043610601d5760003560e01c806330df47af14602557005b36602357005b005b6023603036600460cf565b6000816001600160a01b03163460405160006040518083038185875af1925050503d8060008114607b576040519150601f19603f3d011682016040523d82523d6000602084013e6080565b606091505b505090508060cb5760405162461bcd60e51b81526020600482015260146024820152732330b4b632b2103a379039b2b7321022ba3432b960611b604482015260640160405180910390fd5b5050565b60006020828403121560e057600080fd5b81356001600160a01b038116811460f657600080fd5b939250505056fea2646970667358221220e0a124dd62236a2fec251e9860787dc4ed71d911faa258f1d09f55af4da6054064736f6c63430008110033",
	"deployedBytecode": "0x60806040526004361061004e5760003560e01c80633659cfe6146100655780634f1ef286146100855780635c60da1b146100ae5780638f283970146100db578063f851a440146100fb5761005d565b3661005d5761005b610110565b005b61005b610110565b34801561007157600080fd5b5061005b61008036600461051d565b6101c8565b610098610093366004610538565b61020e565b6040516100a591906105bb565b60405180910390f35b3480156100ba57600080fd5b506100c361033e565b6040516001600160a01b0390911681526020016100a5565b3480156100e757600080fd5b5061005b6100f636600461051d565b6103a9565b34801561010757600080fd5b506100c36103e4565b600061013a7f360894a13ba1a3210667c828492db98dca3e2076cc3735a920a3ca505d382bbc5490565b90506001600160a01b0381166101a55760405162461bcd60e51b815260206004820152602560248201527f50726f78793a20696d706c656d656e746174696f6e206e6f7420696e697469616044820152641b1a5e995960da1b60648201526084015b60405180910390fd5b3660008037600080366000845af43d6000803e806101c2573d6000fd5b503d6000f35b600080516020610621833981519152546001600160a01b0316336001600160a01b031614806101f5575033155b156102065761020381610432565b50565b610203610110565b60606102266000805160206106218339815191525490565b6001600160a01b0316336001600160a01b03161480610243575033155b1561032f5761025184610432565b600080856001600160a01b0316858560405161026e929190610610565b600060405180830381855af49150503d80600081146102a9576040519150601f19603f3d011682016040523d82523d6000602084013e6102ae565b606091505b5091509150816103265760405162461bcd60e51b815260206004820152603960248201527f50726f78793a2064656c656761746563616c6c20746f206e657720696d706c6560448201527f6d656e746174696f6e20636f6e7472616374206661696c656400000000000000606482015260840161019c565b91506103379050565b610337610110565b9392505050565b60006103566000805160206106218339815191525490565b6001600160a01b0316336001600160a01b03161480610373575033155b1561039e57507f360894a13ba1a3210667c828492db98dca3e2076cc3735a920a3ca505d382bbc5490565b6103a6610110565b90565b600080516020610621833981519152546001600160a01b0316336001600160a01b031614806103d6575033155b15610206576102038161048d565b60006103fc6000805160206106218339815191525490565b6001600160a01b0316336001600160a01b03161480610419575033155b1561039e57506000805160206106218339815191525490565b7f360894a13ba1a3210667c828492db98dca3e2076cc3735a920a3ca505d382bbc8190556040516001600160a01b038216907fbc7cd75a20ee27fd9adebab32041f755214dbc6bffa90cc0225b39da2e5c2d3b90600090a250565b60006104a56000805160206106218339815191525490565b600080516020610621833981519152839055604080516001600160a01b038084168252851660208201529192507f7e644d79422f17c01e4894b5f4f588d331ebfa28653d42ae832dc59e38c9798f910160405180910390a15050565b80356001600160a01b038116811461051857600080fd5b919050565b60006020828403121561052f57600080fd5b61033782610501565b60008060006040848603121561054d57600080fd5b61055684610501565b9250602084013567ffffffffffffffff8082111561057357600080fd5b818601915086601f83011261058757600080fd5b81358181111561059657600080fd5b8760208285010111156105a857600080fd5b6020830194508093505050509250925092565b600060208083528351808285015260005b818110156105e8578581018301518582016040015282016105cc565b818111156105fa576000604083870101525b50601f01601f1916929092016040019392505050565b818382376000910190815291905056feb53127684a568b3173ae13b9f8a6016e243e63b6e8ee1178d6a717850b5d6103a26469706673582212202bd1f0b5e6fde550b88238730ef8a1aca50c563a9964646d6babc0ad93dbcf3b64736f6c634300080f0033",
	"devdoc": {
		"kind": "dev",
		"methods": {
			"allowance(address,address)": {
				"details": "See {IERC20-allowance}."
			},
			"approve(address,uint256)": {
				"details": "See {IERC20-approve}. NOTE: If `amount` is the maximum `uint256`, the allowance is not updated on `transferFrom`. This is semantically equivalent to an infinite approval. Requirements: - `spender` cannot be the zero address."
			},
			"balanceOf(address)": {
				"details": "See {IERC20-balanceOf}."
			},
			"burnFrom(address,uint256)": {
				"details": "Destroys `amount` tokens from `account`, deducting from the caller's allowance. See {ERC20-_burn} and {ERC20-allowance}. Requirements: - the caller must have allowance for ``accounts``'s tokens of at least `amount`."
			},
			"decimals()": {
				"details": "Returns the number of decimals used to get its user representation. For example, if `decimals` equals `2`, a balance of `505` tokens should be displayed to a user as `5.05` (`505 / 10 ** 2`). Tokens usually opt for a value of 18, imitating the relationship between Ether and Wei. This is the value {ERC20} uses, unless this function is overridden; NOTE: This information is only used for _display_ purposes: it in no way affects any of the arithmetic of the contract, including {IERC20-balanceOf} and {IERC20-transfer}."
			},
			"decreaseAllowance(address,uint256)": {
				"details": "Atomically decreases the allowance granted to `spender` by the caller. This is an alternative to {approve} that can be used as a mitigation for problems described in {IERC20-approve}. Emits an {Approval} event indicating the updated allowance. Requirements: - `spender` cannot be the zero address. - `spender` must have allowance for the caller of at least `subtractedValue`."
			},
			"increaseAllowance(address,uint256)": {
				"details": "Atomically increases the allowance granted to `spender` by the caller. This is an alternative to {approve} that can be used as a mitigation for problems described in {IERC20-approve}. Emits an {Approval} event indicating the updated allowance. Requirements: - `spender` cannot be the zero address."
			},
			"name()": {
				"details": "Returns the name of the token."
			},
			"owner()": {
				"details": "Returns the address of the current owner."
			},
			"paused()": {
				"details": "Returns true if the contract is paused, and false otherwise."
			},
			"renounceOwnership()": {
				"details": "Leaves the contract without owner. It will not be possible to call `onlyOwner` functions anymore. Can only be called by the current owner. NOTE: Renouncing ownership will leave the contract without an owner, thereby removing any functionality that is only available to the owner."
			},
			"symbol()": {
				"details": "Returns the symbol of the token, usually a shorter version of the name."
			},
			"totalSupply()": {
				"details": "See {IERC20-totalSupply}."
			},
			"transfer(address,uint256)": {
				"details": "See {IERC20-transfer}. Requirements: - `to` cannot be the zero address. - the caller must have a balance of at least `amount`."
			},
			"transferOwnership(address)": {
				"details": "Transfers ownership of the contract to a new account (`newOwner`). Can only be called by the current owner."
			}
		},
		"version": 1
	},
	"userdoc": {
		"kind": "user",
		"methods": {},
		"version": 1
	},
	"storageLayout": {
		"storage": [
			{
				"astId": 26794,
				"contract": "src/1.0/FractionToken.sol:FractionToken",
				"label": "_balances",
				"offset": 0,
				"slot": "0",
				"type": "t_mapping(t_address,t_uint256)"
			},
			{
				"astId": 26800,
				"contract": "src/1.0/FractionToken.sol:FractionToken",
				"label": "_allowances",
				"offset": 0,
				"slot": "1",
				"type": "t_mapping(t_address,t_mapping(t_address,t_uint256))"
			},
			{
				"astId": 26802,
				"contract": "src/1.0/FractionToken.sol:FractionToken",
				"label": "_totalSupply",
				"offset": 0,
				"slot": "2",
				"type": "t_uint256"
			},
			{
				"astId": 26804,
				"contract": "src/1.0/FractionToken.sol:FractionToken",
				"label": "_name",
				"offset": 0,
				"slot": "3",
				"type": "t_string_storage"
			},
			{
				"astId": 26806,
				"contract": "src/1.0/FractionToken.sol:FractionToken",
				"label": "_symbol",
				"offset": 0,
				"slot": "4",
				"type": "t_string_storage"
			},
			{
				"astId": 26634,
				"contract": "src/1.0/FractionToken.sol:FractionToken",
				"label": "_paused",
				"offset": 0,
				"slot": "5",
				"type": "t_bool"
			},
			{
				"astId": 26511,
				"contract": "src/1.0/FractionToken.sol:FractionToken",
				"label": "_owner",
				"offset": 1,
				"slot": "5",
				"type": "t_address"
			},
			{
				"astId": 26735,
				"contract": "src/1.0/FractionToken.sol:FractionToken",
				"label": "_status",
				"offset": 0,
				"slot": "6",
				"type": "t_uint256"
			},
			{
				"astId": 34489,
				"contract": "src/1.0/FractionToken.sol:FractionToken",
				"label": "fractionToken",
				"offset": 0,
				"slot": "7",
				"type": "t_contract(FractionToken)35093"
			},
			{
				"astId": 34496,
				"contract": "src/1.0/FractionToken.sol:FractionToken",
				"label": "tfEth",
				"offset": 0,
				"slot": "8",
				"type": "t_contract(TransferEth)36172"
			},
			{
				"astId": 34498,
				"contract": "src/1.0/FractionToken.sol:FractionToken",
				"label": "NFTAddress",
				"offset": 0,
				"slot": "9",
				"type": "t_address"
			},
			{
				"astId": 34500,
				"contract": "src/1.0/FractionToken.sol:FractionToken",
				"label": "NFTId",
				"offset": 0,
				"slot": "10",
				"type": "t_uint256"
			},
			{
				"astId": 34502,
				"contract": "src/1.0/FractionToken.sol:FractionToken",
				"label": "NFTOwner",
				"offset": 0,
				"slot": "11",
				"type": "t_address"
			},
			{
				"astId": 34504,
				"contract": "src/1.0/FractionToken.sol:FractionToken",
				"label": "RoyaltyPercentage",
				"offset": 0,
				"slot": "12",
				"type": "t_uint256"
			},
			{
				"astId": 34506,
				"contract": "src/1.0/FractionToken.sol:FractionToken",
				"label": "supply",
				"offset": 0,
				"slot": "13",
				"type": "t_uint256"
			},
			{
				"astId": 34508,
				"contract": "src/1.0/FractionToken.sol:FractionToken",
				"label": "_soldToken",
				"offset": 0,
				"slot": "14",
				"type": "t_uint256"
			},
			{
				"astId": 34510,
				"contract": "src/1.0/FractionToken.sol:FractionToken",
				"label": "tokenPrice",
				"offset": 0,
				"slot": "15",
				"type": "t_uint256"
			},
			{
				"astId": 34513,
				"contract": "src/1.0/FractionToken.sol:FractionToken",
				"label": "tokenOwners",
				"offset": 0,
				"slot": "16",
				"type": "t_array(t_address)dyn_storage"
			},
			{
				"astId": 34515,
				"contract": "src/1.0/FractionToken.sol:FractionToken",
				"label": "_treasuryWallet",
				"offset": 0,
				"slot": "17",
				"type": "t_address"
			},
			{
				"astId": 34517,
				"contract": "src/1.0/FractionToken.sol:FractionToken",
				"label": "projectOwner",
				"offset": 0,
				"slot": "18",
				"type": "t_address"
			},
			{
				"astId": 34519,
				"contract": "src/1.0/FractionToken.sol:FractionToken",
				"label": "contractDeployer",
				"offset": 0,
				"slot": "19",
				"type": "t_address"
			},
			{
				"astId": 34523,
				"contract": "src/1.0/FractionToken.sol:FractionToken",
				"label": "isHolding",
				"offset": 0,
				"slot": "20",
				"type": "t_mapping(t_address,t_bool)"
			},
			{
				"astId": 34527,
				"contract": "src/1.0/FractionToken.sol:FractionToken",
				"label": "ownerOf",
				"offset": 0,
				"slot": "21",
				"type": "t_mapping(t_uint256,t_address)"
			},
			{
				"astId": 34531,
				"contract": "src/1.0/FractionToken.sol:FractionToken",
				"label": "supplyOf",
				"offset": 0,
				"slot": "22",
				"type": "t_mapping(t_uint256,t_uint256)"
			},
			{
				"astId": 34535,
				"contract": "src/1.0/FractionToken.sol:FractionToken",
				"label": "maxSupplyOf",
				"offset": 0,
				"slot": "23",
				"type": "t_mapping(t_uint256,t_uint256)"
			},
			{
				"astId": 34539,
				"contract": "src/1.0/FractionToken.sol:FractionToken",
				"label": "_balances",
				"offset": 0,
				"slot": "24",
				"type": "t_mapping(t_address,t_uint256)"
			},
			{
				"astId": 34541,
				"contract": "src/1.0/FractionToken.sol:FractionToken",
				"label": "tokenName",
				"offset": 0,
				"slot": "25",
				"type": "t_string_storage"
			},
			{
				"astId": 34543,
				"contract": "src/1.0/FractionToken.sol:FractionToken",
				"label": "tokenTicker",
				"offset": 0,
				"slot": "26",
				"type": "t_string_storage"
			},
			{
				"astId": 34545,
				"contract": "src/1.0/FractionToken.sol:FractionToken",
				"label": "original",
				"offset": 0,
				"slot": "27",
				"type": "t_address"
			}
		],
		"types": {
			"t_address": {
				"encoding": "inplace",
				"label": "address",
				"numberOfBytes": "20"
			},
			"t_array(t_address)dyn_storage": {
				"encoding": "dynamic_array",
				"label": "address[]",
				"numberOfBytes": "32",
				"base": "t_address"
			},
			"t_bool": {
				"encoding": "inplace",
				"label": "bool",
				"numberOfBytes": "1"
			},
			"t_contract(FractionToken)35093": {
				"encoding": "inplace",
				"label": "contract FractionToken",
				"numberOfBytes": "20"
			},
			"t_contract(TransferEth)36172": {
				"encoding": "inplace",
				"label": "contract TransferEth",
				"numberOfBytes": "20"
			},
			"t_mapping(t_address,t_bool)": {
				"encoding": "mapping",
				"key": "t_address",
				"label": "mapping(address => bool)",
				"numberOfBytes": "32",
				"value": "t_bool"
			},
			"t_mapping(t_address,t_mapping(t_address,t_uint256))": {
				"encoding": "mapping",
				"key": "t_address",
				"label": "mapping(address => mapping(address => uint256))",
				"numberOfBytes": "32",
				"value": "t_mapping(t_address,t_uint256)"
			},
			"t_mapping(t_address,t_uint256)": {
				"encoding": "mapping",
				"key": "t_address",
				"label": "mapping(address => uint256)",
				"numberOfBytes": "32",
				"value": "t_uint256"
			},
			"t_mapping(t_uint256,t_address)": {
				"encoding": "mapping",
				"key": "t_uint256",
				"label": "mapping(uint256 => address)",
				"numberOfBytes": "32",
				"value": "t_address"
			},
			"t_mapping(t_uint256,t_uint256)": {
				"encoding": "mapping",
				"key": "t_uint256",
				"label": "mapping(uint256 => uint256)",
				"numberOfBytes": "32",
				"value": "t_uint256"
			},
			"t_string_storage": {
				"encoding": "bytes",
				"label": "string",
				"numberOfBytes": "32"
			},
			"t_uint256": {
				"encoding": "inplace",
				"label": "uint256",
				"numberOfBytes": "32"
			}
		}
	}
}