{
	"contractName": "StakeSoonanTsoor",
	"address": "0x12Beb90a475eC645e0253757fC75b256f0D15C0B",
	"abi": [
		{
			"inputs": [],
			"stateMutability": "nonpayable",
			"type": "constructor"
		},
		{
			"anonymous": false,
			"inputs": [
				{
					"indexed": true,
					"internalType": "address",
					"name": "from",
					"type": "address"
				},
				{
					"indexed": false,
					"internalType": "uint256",
					"name": "amount",
					"type": "uint256"
				}
			],
			"name": "Claimed",
			"type": "event"
		},
		{
			"anonymous": false,
			"inputs": [
				{
					"indexed": true,
					"internalType": "address",
					"name": "previousOwner",
					"type": "address"
				},
				{
					"indexed": true,
					"internalType": "address",
					"name": "newOwner",
					"type": "address"
				}
			],
			"name": "OwnershipTransferred",
			"type": "event"
		},
		{
			"anonymous": false,
			"inputs": [
				{
					"indexed": false,
					"internalType": "address",
					"name": "account",
					"type": "address"
				}
			],
			"name": "Paused",
			"type": "event"
		},
		{
			"anonymous": false,
			"inputs": [
				{
					"indexed": true,
					"internalType": "address",
					"name": "from",
					"type": "address"
				},
				{
					"indexed": false,
					"internalType": "uint256",
					"name": "amount",
					"type": "uint256"
				}
			],
			"name": "Staked",
			"type": "event"
		},
		{
			"anonymous": false,
			"inputs": [
				{
					"indexed": false,
					"internalType": "address",
					"name": "account",
					"type": "address"
				}
			],
			"name": "Unpaused",
			"type": "event"
		},
		{
			"inputs": [
				{
					"internalType": "address",
					"name": "",
					"type": "address"
				}
			],
			"name": "addressStaked",
			"outputs": [
				{
					"internalType": "bool",
					"name": "",
					"type": "bool"
				}
			],
			"stateMutability": "view",
			"type": "function"
		},
		{
			"inputs": [],
			"name": "claimReward",
			"outputs": [
				{
					"internalType": "bool",
					"name": "",
					"type": "bool"
				}
			],
			"stateMutability": "nonpayable",
			"type": "function"
		},
		{
			"inputs": [],
			"name": "getTokenExpiry",
			"outputs": [
				{
					"internalType": "uint256",
					"name": "",
					"type": "uint256"
				}
			],
			"stateMutability": "view",
			"type": "function"
		},
		{
			"inputs": [],
			"name": "interestRate",
			"outputs": [
				{
					"internalType": "uint8",
					"name": "",
					"type": "uint8"
				}
			],
			"stateMutability": "view",
			"type": "function"
		},
		{
			"inputs": [],
			"name": "owner",
			"outputs": [
				{
					"internalType": "address",
					"name": "",
					"type": "address"
				}
			],
			"stateMutability": "view",
			"type": "function"
		},
		{
			"inputs": [],
			"name": "pause",
			"outputs": [],
			"stateMutability": "nonpayable",
			"type": "function"
		},
		{
			"inputs": [],
			"name": "paused",
			"outputs": [
				{
					"internalType": "bool",
					"name": "",
					"type": "bool"
				}
			],
			"stateMutability": "view",
			"type": "function"
		},
		{
			"inputs": [],
			"name": "planDuration",
			"outputs": [
				{
					"internalType": "uint256",
					"name": "",
					"type": "uint256"
				}
			],
			"stateMutability": "view",
			"type": "function"
		},
		{
			"inputs": [],
			"name": "planExpired",
			"outputs": [
				{
					"internalType": "uint256",
					"name": "",
					"type": "uint256"
				}
			],
			"stateMutability": "view",
			"type": "function"
		},
		{
			"inputs": [],
			"name": "renounceOwnership",
			"outputs": [],
			"stateMutability": "nonpayable",
			"type": "function"
		},
		{
			"inputs": [
				{
					"internalType": "address",
					"name": "",
					"type": "address"
				}
			],
			"name": "stakeInfos",
			"outputs": [
				{
					"internalType": "uint256",
					"name": "startTS",
					"type": "uint256"
				},
				{
					"internalType": "uint256",
					"name": "endTS",
					"type": "uint256"
				},
				{
					"internalType": "uint256",
					"name": "amount",
					"type": "uint256"
				},
				{
					"internalType": "uint256",
					"name": "claimed",
					"type": "uint256"
				}
			],
			"stateMutability": "view",
			"type": "function"
		},
		{
			"inputs": [
				{
					"internalType": "uint256",
					"name": "stakeAmount",
					"type": "uint256"
				}
			],
			"name": "stakeToken",
			"outputs": [],
			"stateMutability": "payable",
			"type": "function"
		},
		{
			"inputs": [],
			"name": "totalStakers",
			"outputs": [
				{
					"internalType": "uint8",
					"name": "",
					"type": "uint8"
				}
			],
			"stateMutability": "view",
			"type": "function"
		},
		{
			"inputs": [
				{
					"internalType": "address",
					"name": "newOwner",
					"type": "address"
				}
			],
			"name": "transferOwnership",
			"outputs": [],
			"stateMutability": "nonpayable",
			"type": "function"
		},
		{
			"inputs": [
				{
					"internalType": "address",
					"name": "to",
					"type": "address"
				},
				{
					"internalType": "uint256",
					"name": "amount",
					"type": "uint256"
				}
			],
			"name": "transferToken",
			"outputs": [],
			"stateMutability": "nonpayable",
			"type": "function"
		},
		{
			"inputs": [],
			"name": "unpause",
			"outputs": [],
			"stateMutability": "nonpayable",
			"type": "function"
		}
	],
	"transactionHash": "0x97828ba8ed4e0267407599339aed59e2426af2d375166e18e3f16f678452084b",
	"solcInputHash": "69a05494a4e6e21392813a73dcd4fc17",
	"numDeployments": 1,
	"args": [],
	"bytecode": "0x608060405262278d0060035562ed4e006004556005805460ff1916602017905534801561002b57600080fd5b506000805460ff1916905561003f33610062565b6001805560045461005090426100bb565b6006556007805460ff191690556100e2565b600080546001600160a01b03838116610100818102610100600160a81b0319851617855560405193049190911692909183917f8be0079c531659141344cd1fd0a4f28419497f9722a3daafe3b4186f6b6457e091a35050565b808201808211156100dc57634e487b7160e01b600052601160045260246000fd5b92915050565b610dec806100f16000396000f3fe6080604052600436106100f35760003560e01c80638da5cb5b1161008a578063cda6b84711610059578063cda6b84714610262578063dfbf9def14610275578063e74d059f146102d7578063f2fde38b1461030757600080fd5b80638da5cb5b146101ec5780639ffca90614610222578063b88a802f14610237578063bfb5718d1461024c57600080fd5b8063715018a6116100c6578063715018a61461017c5780637c3a00fd146101915780638456cb59146101bd57806386989038146101d257600080fd5b80631072cbea146100f85780633f4ba83a1461011a57806351be43241461012f5780635c975abb14610158575b600080fd5b34801561010457600080fd5b50610118610113366004610c8f565b610327565b005b34801561012657600080fd5b506101186103f4565b34801561013b57600080fd5b5061014560065481565b6040519081526020015b60405180910390f35b34801561016457600080fd5b5060005460ff165b604051901515815260200161014f565b34801561018857600080fd5b50610118610406565b34801561019d57600080fd5b506005546101ab9060ff1681565b60405160ff909116815260200161014f565b3480156101c957600080fd5b50610118610418565b3480156101de57600080fd5b506007546101ab9060ff1681565b3480156101f857600080fd5b5060005461010090046001600160a01b03166040516001600160a01b03909116815260200161014f565b34801561022e57600080fd5b50610145610428565b34801561024357600080fd5b5061016c61049e565b34801561025857600080fd5b5061014560035481565b610118610270366004610cb9565b6106b3565b34801561028157600080fd5b506102b7610290366004610cd2565b60086020526000908152604090208054600182015460028301546003909301549192909184565b60408051948552602085019390935291830152606082015260800161014f565b3480156102e357600080fd5b5061016c6102f2366004610cd2565b60096020526000908152604090205460ff1681565b34801561031357600080fd5b50610118610322366004610cd2565b610a23565b61032f610a9c565b60025460405163a9059cbb60e01b81526001600160a01b038481166004830152602482018490529091169063a9059cbb906044016020604051808303816000875af1158015610382573d6000803e3d6000fd5b505050506040513d601f19601f820116820180604052508101906103a69190610cf4565b6103f05760405162461bcd60e51b8152602060048201526016602482015275546f6b656e207472616e73666572206661696c65642160501b60448201526064015b60405180910390fd5b5050565b6103fc610a9c565b610404610afc565b565b61040e610a9c565b6104046000610b4e565b610420610a9c565b610404610ba7565b3360009081526009602052604081205460ff1615156001146104875760405162461bcd60e51b8152602060048201526018602482015277165bdd48185c99481b9bdd081c185c9d1a58da5c185d195960421b60448201526064016103e7565b503360009081526008602052604090206001015490565b3360009081526009602052604081205460ff1615156001146104fd5760405162461bcd60e51b8152602060048201526018602482015277165bdd48185c99481b9bdd081c185c9d1a58da5c185d195960421b60448201526064016103e7565b33600090815260086020526040902060010154421161055e5760405162461bcd60e51b815260206004820152601a60248201527f5374616b652054696d65206973206e6f74206f7665722079657400000000000060448201526064016103e7565b33600090815260086020526040902060030154156105b05760405162461bcd60e51b815260206004820152600f60248201526e105b1c9958591e4818db185a5b5959608a1b60448201526064016103e7565b336000908152600860205260408120600201546005549091906064906105d99060ff1684610d2c565b6105e39190610d49565b6105ed9083610d6b565b336000818152600860209081526002546040805163a9059cbb60e01b8152600481019590955260248501869052519495506001600160a01b03169363a9059cbb936044808201949183900301908290875af1158015610650573d6000803e3d6000fd5b505050506040513d601f19601f820116820180604052508101906106749190610cf4565b5060405181815233907fd8138f8a3f377c5259ca548e70e4c2de94f129f5a11036a15b69513cba2b426a9060200160405180910390a260019250505090565b6106bb610be4565b6000811161070b5760405162461bcd60e51b815260206004820152601e60248201527f5374616b6520616d6f756e742073686f756c6420626520636f7272656374000060448201526064016103e7565b600654421061074b5760405162461bcd60e51b815260206004820152600c60248201526b141b185b88115e1c1a5c995960a21b60448201526064016103e7565b3360009081526009602052604090205460ff16156107ab5760405162461bcd60e51b815260206004820152601860248201527f596f7520616c726561647920706172746963697061746564000000000000000060448201526064016103e7565b60025481906001600160a01b03166370a08231336040516001600160e01b031960e084901b1681526001600160a01b039091166004820152602401602060405180830381865afa158015610803573d6000803e3d6000fd5b505050506040513d601f19601f820116820180604052508101906108279190610d7e565b101561086c5760405162461bcd60e51b8152602060048201526014602482015273496e73756666696369656e742042616c616e636560601b60448201526064016103e7565b6002546001600160a01b03166323b872dd336040516001600160e01b031960e084901b1681526001600160a01b039091166004820152306024820152604481018490526064016020604051808303816000875af11580156108d1573d6000803e3d6000fd5b505050506040513d601f19601f820116820180604052508101906108f59190610d7e565b506007805460ff1690600061090983610d97565b91906101000a81548160ff021916908360ff1602179055505060016009600061092f3390565b6001600160a01b03166001600160a01b0316815260200190815260200160002060006101000a81548160ff0219169083151502179055506040518060800160405280428152602001600354426109859190610d6b565b81526020018281526020016000815250600860006109a03390565b6001600160a01b031681526020808201929092526040908101600020835181559183015160018301558201516002820155606090910151600390910155336001600160a01b03167f9e71bc8eea02a63969f509818f2dafb9254532904319f9dbda79b67bd34a5f3d82604051610a1891815260200190565b60405180910390a250565b610a2b610a9c565b6001600160a01b038116610a905760405162461bcd60e51b815260206004820152602660248201527f4f776e61626c653a206e6577206f776e657220697320746865207a65726f206160448201526564647265737360d01b60648201526084016103e7565b610a9981610b4e565b50565b6000546001600160a01b036101009091041633146104045760405162461bcd60e51b815260206004820181905260248201527f4f776e61626c653a2063616c6c6572206973206e6f7420746865206f776e657260448201526064016103e7565b610b04610c2a565b6000805460ff191690557f5db9ee0a495bf2e6ff9c91a7834c1ba4fdd244a5e8aa4e537bd38aeae4b073aa335b6040516001600160a01b03909116815260200160405180910390a1565b600080546001600160a01b03838116610100818102610100600160a81b0319851617855560405193049190911692909183917f8be0079c531659141344cd1fd0a4f28419497f9722a3daafe3b4186f6b6457e091a35050565b610baf610be4565b6000805460ff191660011790557f62e78cea01bee320cd4e420270b5ea74000d11b0c9f74754ebdbfc544b05a258610b313390565b60005460ff16156104045760405162461bcd60e51b815260206004820152601060248201526f14185d5cd8589b194e881c185d5cd95960821b60448201526064016103e7565b60005460ff166104045760405162461bcd60e51b815260206004820152601460248201527314185d5cd8589b194e881b9bdd081c185d5cd95960621b60448201526064016103e7565b80356001600160a01b0381168114610c8a57600080fd5b919050565b60008060408385031215610ca257600080fd5b610cab83610c73565b946020939093013593505050565b600060208284031215610ccb57600080fd5b5035919050565b600060208284031215610ce457600080fd5b610ced82610c73565b9392505050565b600060208284031215610d0657600080fd5b81518015158114610ced57600080fd5b634e487b7160e01b600052601160045260246000fd5b8082028115828204841417610d4357610d43610d16565b92915050565b600082610d6657634e487b7160e01b600052601260045260246000fd5b500490565b80820180821115610d4357610d43610d16565b600060208284031215610d9057600080fd5b5051919050565b600060ff821660ff8103610dad57610dad610d16565b6001019291505056fea264697066735822122002e2f8c17ca4dcf4594d81f316ed03b39363816ac6129efafff981c38b15c5e864736f6c63430008110033",
	"deployedBytecode": "0x60806040526004361061004e5760003560e01c80633659cfe6146100655780634f1ef286146100855780635c60da1b146100ae5780638f283970146100db578063f851a440146100fb5761005d565b3661005d5761005b610110565b005b61005b610110565b34801561007157600080fd5b5061005b61008036600461051d565b6101c8565b610098610093366004610538565b61020e565b6040516100a591906105bb565b60405180910390f35b3480156100ba57600080fd5b506100c361033e565b6040516001600160a01b0390911681526020016100a5565b3480156100e757600080fd5b5061005b6100f636600461051d565b6103a9565b34801561010757600080fd5b506100c36103e4565b600061013a7f360894a13ba1a3210667c828492db98dca3e2076cc3735a920a3ca505d382bbc5490565b90506001600160a01b0381166101a55760405162461bcd60e51b815260206004820152602560248201527f50726f78793a20696d706c656d656e746174696f6e206e6f7420696e697469616044820152641b1a5e995960da1b60648201526084015b60405180910390fd5b3660008037600080366000845af43d6000803e806101c2573d6000fd5b503d6000f35b600080516020610621833981519152546001600160a01b0316336001600160a01b031614806101f5575033155b156102065761020381610432565b50565b610203610110565b60606102266000805160206106218339815191525490565b6001600160a01b0316336001600160a01b03161480610243575033155b1561032f5761025184610432565b600080856001600160a01b0316858560405161026e929190610610565b600060405180830381855af49150503d80600081146102a9576040519150601f19603f3d011682016040523d82523d6000602084013e6102ae565b606091505b5091509150816103265760405162461bcd60e51b815260206004820152603960248201527f50726f78793a2064656c656761746563616c6c20746f206e657720696d706c6560448201527f6d656e746174696f6e20636f6e7472616374206661696c656400000000000000606482015260840161019c565b91506103379050565b610337610110565b9392505050565b60006103566000805160206106218339815191525490565b6001600160a01b0316336001600160a01b03161480610373575033155b1561039e57507f360894a13ba1a3210667c828492db98dca3e2076cc3735a920a3ca505d382bbc5490565b6103a6610110565b90565b600080516020610621833981519152546001600160a01b0316336001600160a01b031614806103d6575033155b15610206576102038161048d565b60006103fc6000805160206106218339815191525490565b6001600160a01b0316336001600160a01b03161480610419575033155b1561039e57506000805160206106218339815191525490565b7f360894a13ba1a3210667c828492db98dca3e2076cc3735a920a3ca505d382bbc8190556040516001600160a01b038216907fbc7cd75a20ee27fd9adebab32041f755214dbc6bffa90cc0225b39da2e5c2d3b90600090a250565b60006104a56000805160206106218339815191525490565b600080516020610621833981519152839055604080516001600160a01b038084168252851660208201529192507f7e644d79422f17c01e4894b5f4f588d331ebfa28653d42ae832dc59e38c9798f910160405180910390a15050565b80356001600160a01b038116811461051857600080fd5b919050565b60006020828403121561052f57600080fd5b61033782610501565b60008060006040848603121561054d57600080fd5b61055684610501565b9250602084013567ffffffffffffffff8082111561057357600080fd5b818601915086601f83011261058757600080fd5b81358181111561059657600080fd5b8760208285010111156105a857600080fd5b6020830194508093505050509250925092565b600060208083528351808285015260005b818110156105e8578581018301518582016040015282016105cc565b818111156105fa576000604083870101525b50601f01601f1916929092016040019392505050565b818382376000910190815291905056feb53127684a568b3173ae13b9f8a6016e243e63b6e8ee1178d6a717850b5d6103a26469706673582212202bd1f0b5e6fde550b88238730ef8a1aca50c563a9964646d6babc0ad93dbcf3b64736f6c634300080f0033",
	"devdoc": {
		"kind": "dev",
		"methods": {
			"owner()": {
				"details": "Returns the address of the current owner."
			},
			"paused()": {
				"details": "Returns true if the contract is paused, and false otherwise."
			},
			"renounceOwnership()": {
				"details": "Leaves the contract without owner. It will not be possible to call `onlyOwner` functions anymore. Can only be called by the current owner. NOTE: Renouncing ownership will leave the contract without an owner, thereby removing any functionality that is only available to the owner."
			},
			"transferOwnership(address)": {
				"details": "Transfers ownership of the contract to a new account (`newOwner`). Can only be called by the current owner."
			}
		},
		"version": 1
	},
	"userdoc": {
		"kind": "user",
		"methods": {},
		"version": 1
	},
	"storageLayout": {
		"storage": [
			{
				"astId": 26634,
				"contract": "src/1.0/StakeSoonanTsoor.sol:StakeSoonanTsoor",
				"label": "_paused",
				"offset": 0,
				"slot": "0",
				"type": "t_bool"
			},
			{
				"astId": 26511,
				"contract": "src/1.0/StakeSoonanTsoor.sol:StakeSoonanTsoor",
				"label": "_owner",
				"offset": 1,
				"slot": "0",
				"type": "t_address"
			},
			{
				"astId": 26735,
				"contract": "src/1.0/StakeSoonanTsoor.sol:StakeSoonanTsoor",
				"label": "_status",
				"offset": 0,
				"slot": "1",
				"type": "t_uint256"
			},
			{
				"astId": 35849,
				"contract": "src/1.0/StakeSoonanTsoor.sol:StakeSoonanTsoor",
				"label": "snsrToken",
				"offset": 0,
				"slot": "2",
				"type": "t_contract(Token)35840"
			},
			{
				"astId": 35852,
				"contract": "src/1.0/StakeSoonanTsoor.sol:StakeSoonanTsoor",
				"label": "planDuration",
				"offset": 0,
				"slot": "3",
				"type": "t_uint256"
			},
			{
				"astId": 35855,
				"contract": "src/1.0/StakeSoonanTsoor.sol:StakeSoonanTsoor",
				"label": "_planExpired",
				"offset": 0,
				"slot": "4",
				"type": "t_uint256"
			},
			{
				"astId": 35858,
				"contract": "src/1.0/StakeSoonanTsoor.sol:StakeSoonanTsoor",
				"label": "interestRate",
				"offset": 0,
				"slot": "5",
				"type": "t_uint8"
			},
			{
				"astId": 35860,
				"contract": "src/1.0/StakeSoonanTsoor.sol:StakeSoonanTsoor",
				"label": "planExpired",
				"offset": 0,
				"slot": "6",
				"type": "t_uint256"
			},
			{
				"astId": 35862,
				"contract": "src/1.0/StakeSoonanTsoor.sol:StakeSoonanTsoor",
				"label": "totalStakers",
				"offset": 0,
				"slot": "7",
				"type": "t_uint8"
			},
			{
				"astId": 35888,
				"contract": "src/1.0/StakeSoonanTsoor.sol:StakeSoonanTsoor",
				"label": "stakeInfos",
				"offset": 0,
				"slot": "8",
				"type": "t_mapping(t_address,t_struct(StakeInfo)35871_storage)"
			},
			{
				"astId": 35892,
				"contract": "src/1.0/StakeSoonanTsoor.sol:StakeSoonanTsoor",
				"label": "addressStaked",
				"offset": 0,
				"slot": "9",
				"type": "t_mapping(t_address,t_bool)"
			}
		],
		"types": {
			"t_address": {
				"encoding": "inplace",
				"label": "address",
				"numberOfBytes": "20"
			},
			"t_bool": {
				"encoding": "inplace",
				"label": "bool",
				"numberOfBytes": "1"
			},
			"t_contract(Token)35840": {
				"encoding": "inplace",
				"label": "contract Token",
				"numberOfBytes": "20"
			},
			"t_mapping(t_address,t_bool)": {
				"encoding": "mapping",
				"key": "t_address",
				"label": "mapping(address => bool)",
				"numberOfBytes": "32",
				"value": "t_bool"
			},
			"t_mapping(t_address,t_struct(StakeInfo)35871_storage)": {
				"encoding": "mapping",
				"key": "t_address",
				"label": "mapping(address => struct StakeSoonanTsoor.StakeInfo)",
				"numberOfBytes": "32",
				"value": "t_struct(StakeInfo)35871_storage"
			},
			"t_struct(StakeInfo)35871_storage": {
				"encoding": "inplace",
				"label": "struct StakeSoonanTsoor.StakeInfo",
				"numberOfBytes": "128",
				"members": [
					{
						"astId": 35864,
						"contract": "src/1.0/StakeSoonanTsoor.sol:StakeSoonanTsoor",
						"label": "startTS",
						"offset": 0,
						"slot": "0",
						"type": "t_uint256"
					},
					{
						"astId": 35866,
						"contract": "src/1.0/StakeSoonanTsoor.sol:StakeSoonanTsoor",
						"label": "endTS",
						"offset": 0,
						"slot": "1",
						"type": "t_uint256"
					},
					{
						"astId": 35868,
						"contract": "src/1.0/StakeSoonanTsoor.sol:StakeSoonanTsoor",
						"label": "amount",
						"offset": 0,
						"slot": "2",
						"type": "t_uint256"
					},
					{
						"astId": 35870,
						"contract": "src/1.0/StakeSoonanTsoor.sol:StakeSoonanTsoor",
						"label": "claimed",
						"offset": 0,
						"slot": "3",
						"type": "t_uint256"
					}
				]
			},
			"t_uint256": {
				"encoding": "inplace",
				"label": "uint256",
				"numberOfBytes": "32"
			},
			"t_uint8": {
				"encoding": "inplace",
				"label": "uint8",
				"numberOfBytes": "1"
			}
		}
	}
}